:100000000C942A000C9447000C9447000C94470071
:100010000C9447000C9447000C9447000C94470044
:100020000C9447000C9447000C9442050C94470034
:100030000C9447000C9447000C9447000C94470024
:100040000C9447000C9447000C9447000C94470014
:100050000C94470011241FBECFE5D8E0DEBFCDBF12
:1000600010E0A0E6B0E0EAE3FBE002C005900D92EC
:10007000A836B107D9F710E0A8E6B0E001C01D929C
:10008000AA36B107E1F70E94B3040C949B050C94C7
:100090000000843409F471C0853448F4823499F145
:1000A000833408F04DC0813409F083C00FC082361C
:1000B00051F1833620F4813609F07BC007C08336C6
:1000C00009F43EC0843609F074C057C0413069F469
:1000D0002AB381E090E0AC0102C0440F551F6A953D
:1000E000E2F7BA01622B6ABB08952AB381E090E07F
:1000F000AC0102C0440F551F6A95E2F7BA01609542
:1001000062236ABB0895413069F427B381E090E02F
:10011000AC0102C0440F551F6A95E2F7BA01622B89
:1001200067BB089527B381E090E0AC0102C0440FA3
:10013000551F6A95E2F7BA016095622367BB08957F
:10014000413069F424B381E090E0AC0102C0440F77
:10015000551F6A95E2F7BA01622B64BB089524B378
:1001600081E090E0AC0102C0440F551F6A95E2F7B0
:10017000BA016095622364BB0895413069F421B3EC
:1001800081E090E0AC0102C0440F551F6A95E2F790
:10019000BA01622B61BB089521B381E090E0AC010C
:1001A00002C0440F551F6A95E2F7BA0160956223B9
:1001B00061BB0895843409F471C0853448F48234F5
:1001C00099F1833408F04DC0813409F083C00FC029
:1001D000823651F1833620F4813609F07BC007C0A6
:1001E000833609F43EC0843609F074C057C04130EC
:1001F00069F42BB381E090E0AC0102C0440F551FBD
:100200006A95E2F7BA01622B6BBB08952BB381E0CC
:1002100090E0AC0102C0440F551F6A95E2F7BA01A5
:10022000609562236BBB0895413069F428B381E087
:1002300090E0AC0102C0440F551F6A95E2F7BA0185
:10024000622B68BB089528B381E090E0AC0102C046
:10025000440F551F6A95E2F7BA016095622368BBA7
:100260000895413069F425B381E090E0AC0102C00B
:10027000440F551F6A95E2F7BA01622B65BB0895DA
:1002800025B381E090E0AC0102C0440F551F6A9590
:10029000E2F7BA016095622365BB0895413069F4C5
:1002A00022B381E090E0AC0102C0440F551F6A9573
:1002B000E2F7BA01622B62BB089522B381E090E0BD
:1002C000AC0102C0440F551F6A95E2F7BA01609570
:1002D000622362BB0895843409F43DC0853440F440
:1002E0008234F9F0833450F5813409F040C00CC0F9
:1002F0008236B9F0833618F48136C9F505C08336E5
:10030000E9F08436A1F527C02BB381E090E0AC0181
:1003100002C0440F551F6A95E2F7BA0162276BBB12
:10032000089528B381E090E0AC0102C0440F551F4E
:100330006A95E2F7BA01622768BB089525B381E0A8
:1003400090E0AC0102C0440F551F6A95E2F7BA0174
:10035000622765BB089522B381E090E0AC0102C042
:10036000440F551F6A95E2F7BA01622762BB0895F0
:10037000843409F44EC0853440F4823431F183343E
:10038000B0F5813409F057C00EC08236F1F08336E3
:1003900020F4813609F04FC006C0833641F184361F
:1003A00009F049C036C029B381E090E0062E02C0B2
:1003B000880F991F0A94E2F730E08223932302C04A
:1003C000959587956A95E2F7089526B381E090E0C8
:1003D000062E02C0880F991F0A94E2F730E08223AC
:1003E000932302C0959587956A95E2F7089523B304
:1003F00081E090E0062E02C0880F991F0A94E2F770
:1004000030E08223932302C0959587956A95E2F7A1
:10041000089520B381E090E0062E02C0880F991F56
:100420000A94E2F730E08223932302C095958795E2
:100430006A95E2F7089508958434D9F0853438F444
:10044000823499F0833498F48134A1F40CC082365C
:1004500061F0833618F4813669F405C0833639F0CB
:10046000843641F406C06ABB089567BB089564BB37
:10047000089561BB08958434D9F0853438F482340A
:1004800099F0833498F48134A1F40CC0823661F081
:10049000833618F4813669F405C0833639F0843622
:1004A00041F406C06BBB089568BB089565BB089511
:1004B00062BB0895843409F1853438F48234A9F09C
:1004C0008334B8F48134E1F40CC0823671F08336A1
:1004D00018F48136A9F405C0833659F0843681F4C6
:1004E0000CC08BB380958BBB089588B3809588BB77
:1004F000089585B3809585BB089582B3809582BBAE
:1005000008958434D9F0853438F4823499F08334F2
:1005100098F48134A9F40CC0823661F0833618F463
:10052000813671F405C0833639F0843649F406C04B
:1005300089B3089586B3089583B3089580B3089569
:1005400008956295607F843451F1853438F48234A3
:10055000C1F08334E8F4813441F50CC0823689F06F
:10056000833618F4813609F505C0833689F0843660
:10057000E1F415C08BB38F708BBB8BB3682B6BBB57
:10058000089588B38F7088BB88B3682B68BB0895C3
:1005900085B38F7085BB85B3682B65BB089582B327
:1005A0008F7082BB82B3682B62BB0895843451F193
:1005B000853438F48234C1F08334E8F4813441F571
:1005C0000CC0823689F0833618F4813609F505C0EF
:1005D000833689F08436E1F415C08BB3807F8BBB02
:1005E0008BB3682B6BBB089588B3807F88BB88B3BF
:1005F000682B68BB089585B3807F85BB85B3682B66
:1006000065BB089582B3807F82BB82B3682B62BBD7
:100610000895843409F471C0853448F4823499F122
:10062000833408F04DC0813409F083C00FC0823696
:1006300051F1833620F4813609F07BC007C0833640
:1006400009F43EC0843609F074C057C0413069F4E3
:100650002BB381E090E0AC0102C0440F551F6A95B6
:10066000E2F7BA01622B6BBB08952BB381E090E0F7
:10067000AC0102C0440F551F6A95E2F7BA016095BC
:1006800062236BBB0895413069F428B381E090E0A8
:10069000AC0102C0440F551F6A95E2F7BA01622B04
:1006A00068BB089528B381E090E0AC0102C0440F1C
:1006B000551F6A95E2F7BA016095622368BB0895F9
:1006C000413069F425B381E090E0AC0102C0440FF1
:1006D000551F6A95E2F7BA01622B65BB089525B3F1
:1006E00081E090E0AC0102C0440F551F6A95E2F72B
:1006F000BA016095622365BB0895413069F422B365
:1007000081E090E0AC0102C0440F551F6A95E2F70A
:10071000BA01622B62BB089522B381E090E0AC0184
:1007200002C0440F551F6A95E2F7BA016095622333
:1007300062BB089582E490E060E070E041E050E048
:100740000E94DA0083EF91E00197F1F700C000000A
:1007500082E490E060E070E040E050E00E94DA0067
:1007600083EF91E00197F1F700C000000895CF9367
:10077000C82F682F62956F7081E490E070E00E944E
:10078000A10282E490E062E070E040E050E00E946C
:10079000DA000E949A0381E490E06C2F70E00E94DE
:1007A000A10282E490E062E070E040E050E00E944C
:1007B000DA000E949A0389EF90E00197F1F700C0F8
:1007C0000000CF91089581E490E064E070E041E0A2
:1007D00050E00E94490081E490E065E070E041E073
:1007E00050E00E94490081E490E066E070E041E062
:1007F00050E00E94490081E490E067E070E041E051
:1008000050E00E94490082E490E060E070E041E046
:1008100050E00E94490082E490E062E070E041E034
:1008200050E00E94490082E490E061E070E041E025
:1008300050E00E94490082E490E061E070E040E016
:1008400050E00E94DA0082E00E94B70383EC99E056
:100850000197F1F700C0000088E20E94B70389EF1A
:1008600090E00197F1F700C000008CE00E94B70310
:1008700089EF90E00197F1F700C0000081E00E944D
:10088000B70383EC99E00197F1F700C0000086E020
:100890000E94B70389EF90E00197F1F700C00000D4
:1008A0000895CF93C82F682F62956F7081E490E010
:1008B00070E00E94A10282E490E062E070E041E01A
:1008C00050E00E94DA000E949A0381E490E06C2FCD
:1008D00070E00E94A10282E490E062E070E041E0FA
:1008E00050E00E94DA000E949A03CF910895CF93BE
:1008F000DF93EC018881882331F021960E94510416
:1009000089918823D9F7DF91CF91089581E00E94E2
:10091000B70383EC99E00197F1F700C00000089558
:10092000813019F4862F815806C0823019F4862F41
:10093000815401C080E80E94B70389EF90E00197DD
:10094000F1F700C00000089583B7886083BF80E599
:100950008CBF83B7846083BF83B7816083BF89B74F
:10096000826089BF08950E94E30378940E94A404E2
:1009700084E460E041E00E94490084E461E041E0F9
:100980000E94490084E462E041E00E94490080E660
:1009900090E00E94770404E610E00F2EFFE0FF2EA7
:1009A000F02DDAE00F2EF3E2EF2EF02D0F2EF4E112
:1009B000DF2EF02D8091680090916900B8010E94AF
:1009C0007405C62F862F972F8F309105F4F48F2D45
:1009D000861BC82F84E462E040E00E94DA0084E4D1
:1009E00060E041E00E94DA0081E066E00E9490044D
:1009F0008C2F6D2F0E946805C92F805D0E945104C5
:100A00008C2F805D0E945104D5CF84319105C4F4B0
:100A100084E460E040E00E94DA0084E461E041E0C8
:100A20000E94DA0081E067E00E9490048D2D8C1B0B
:100A30006D2F0E946805892F805D0E945104BACFF6
:100A4000833291050CF0B6CF8E2D861BC82F84E41F
:100A500061E040E00E94DA0084E462E041E00E944C
:100A6000DA0081E066E00E9490048C2F6D2F0E94D6
:100A70006805C92F805D0E9451048C2F805D0E9403
:100A8000510498CF1F920F920FB60F9211242F93FB
:100A90008F939F9380916800909169002DE08C3A2C
:100AA00092072CF0109269001092680009C08091A2
:100AB00068009091690001969093690080936800A6
:100AC0009F918F912F910F900FBE0F901F901895AF
:100AD000991B79E004C0991F961708F0961B881F90
:100AE0007A95C9F78095089597FB092E07260AD0B5
:100AF00077FD04D00CD006D000201AF470956195D3
:100B00007F4F0895F6F7909581959F4F0895AA1B02
:100B1000BB1B51E107C0AA1FBB1FA617B70710F0E8
:100B2000A61BB70B881F991F5A95A9F7809590951A
:0A0B3000BC01CD010895F894FFCF39
:080B3A0054494D453A2000002A
:00000001FF
